{
  "contractName": "MusicNFTMarketplace",
  "abi": [
    {
      "anonymous": false,
      "inputs": [
        {
          "indexed": true,
          "internalType": "address",
          "name": "owner",
          "type": "address"
        },
        {
          "indexed": true,
          "internalType": "address",
          "name": "approved",
          "type": "address"
        },
        {
          "indexed": true,
          "internalType": "uint256",
          "name": "tokenId",
          "type": "uint256"
        }
      ],
      "name": "Approval",
      "type": "event"
    },
    {
      "anonymous": false,
      "inputs": [
        {
          "indexed": true,
          "internalType": "address",
          "name": "owner",
          "type": "address"
        },
        {
          "indexed": true,
          "internalType": "address",
          "name": "operator",
          "type": "address"
        },
        {
          "indexed": false,
          "internalType": "bool",
          "name": "approved",
          "type": "bool"
        }
      ],
      "name": "ApprovalForAll",
      "type": "event"
    },
    {
      "anonymous": false,
      "inputs": [
        {
          "indexed": true,
          "internalType": "address",
          "name": "previousOwner",
          "type": "address"
        },
        {
          "indexed": true,
          "internalType": "address",
          "name": "newOwner",
          "type": "address"
        }
      ],
      "name": "OwnershipTransferred",
      "type": "event"
    },
    {
      "anonymous": false,
      "inputs": [
        {
          "indexed": true,
          "internalType": "address",
          "name": "from",
          "type": "address"
        },
        {
          "indexed": true,
          "internalType": "address",
          "name": "to",
          "type": "address"
        },
        {
          "indexed": true,
          "internalType": "uint256",
          "name": "tokenId",
          "type": "uint256"
        }
      ],
      "name": "Transfer",
      "type": "event"
    },
    {
      "inputs": [
        {
          "internalType": "address",
          "name": "to",
          "type": "address"
        },
        {
          "internalType": "uint256",
          "name": "tokenId",
          "type": "uint256"
        }
      ],
      "name": "approve",
      "outputs": [],
      "stateMutability": "nonpayable",
      "type": "function"
    },
    {
      "inputs": [],
      "name": "artist",
      "outputs": [
        {
          "internalType": "address",
          "name": "",
          "type": "address"
        }
      ],
      "stateMutability": "view",
      "type": "function"
    },
    {
      "inputs": [
        {
          "internalType": "address",
          "name": "owner",
          "type": "address"
        }
      ],
      "name": "balanceOf",
      "outputs": [
        {
          "internalType": "uint256",
          "name": "",
          "type": "uint256"
        }
      ],
      "stateMutability": "view",
      "type": "function"
    },
    {
      "inputs": [],
      "name": "baseExtension",
      "outputs": [
        {
          "internalType": "string",
          "name": "",
          "type": "string"
        }
      ],
      "stateMutability": "view",
      "type": "function"
    },
    {
      "inputs": [],
      "name": "baseURI",
      "outputs": [
        {
          "internalType": "string",
          "name": "",
          "type": "string"
        }
      ],
      "stateMutability": "view",
      "type": "function"
    },
    {
      "inputs": [
        {
          "internalType": "uint256",
          "name": "tokenId",
          "type": "uint256"
        }
      ],
      "name": "getApproved",
      "outputs": [
        {
          "internalType": "address",
          "name": "",
          "type": "address"
        }
      ],
      "stateMutability": "view",
      "type": "function"
    },
    {
      "inputs": [
        {
          "internalType": "address",
          "name": "owner",
          "type": "address"
        },
        {
          "internalType": "address",
          "name": "operator",
          "type": "address"
        }
      ],
      "name": "isApprovedForAll",
      "outputs": [
        {
          "internalType": "bool",
          "name": "",
          "type": "bool"
        }
      ],
      "stateMutability": "view",
      "type": "function"
    },
    {
      "inputs": [],
      "name": "name",
      "outputs": [
        {
          "internalType": "string",
          "name": "",
          "type": "string"
        }
      ],
      "stateMutability": "view",
      "type": "function"
    },
    {
      "inputs": [],
      "name": "owner",
      "outputs": [
        {
          "internalType": "address",
          "name": "",
          "type": "address"
        }
      ],
      "stateMutability": "view",
      "type": "function"
    },
    {
      "inputs": [
        {
          "internalType": "uint256",
          "name": "tokenId",
          "type": "uint256"
        }
      ],
      "name": "ownerOf",
      "outputs": [
        {
          "internalType": "address",
          "name": "",
          "type": "address"
        }
      ],
      "stateMutability": "view",
      "type": "function"
    },
    {
      "inputs": [],
      "name": "renounceOwnership",
      "outputs": [],
      "stateMutability": "nonpayable",
      "type": "function"
    },
    {
      "inputs": [],
      "name": "royaltyFee",
      "outputs": [
        {
          "internalType": "uint256",
          "name": "",
          "type": "uint256"
        }
      ],
      "stateMutability": "view",
      "type": "function"
    },
    {
      "inputs": [
        {
          "internalType": "address",
          "name": "from",
          "type": "address"
        },
        {
          "internalType": "address",
          "name": "to",
          "type": "address"
        },
        {
          "internalType": "uint256",
          "name": "tokenId",
          "type": "uint256"
        }
      ],
      "name": "safeTransferFrom",
      "outputs": [],
      "stateMutability": "nonpayable",
      "type": "function"
    },
    {
      "inputs": [
        {
          "internalType": "address",
          "name": "from",
          "type": "address"
        },
        {
          "internalType": "address",
          "name": "to",
          "type": "address"
        },
        {
          "internalType": "uint256",
          "name": "tokenId",
          "type": "uint256"
        },
        {
          "internalType": "bytes",
          "name": "data",
          "type": "bytes"
        }
      ],
      "name": "safeTransferFrom",
      "outputs": [],
      "stateMutability": "nonpayable",
      "type": "function"
    },
    {
      "inputs": [
        {
          "internalType": "address",
          "name": "operator",
          "type": "address"
        },
        {
          "internalType": "bool",
          "name": "approved",
          "type": "bool"
        }
      ],
      "name": "setApprovalForAll",
      "outputs": [],
      "stateMutability": "nonpayable",
      "type": "function"
    },
    {
      "inputs": [
        {
          "internalType": "bytes4",
          "name": "interfaceId",
          "type": "bytes4"
        }
      ],
      "name": "supportsInterface",
      "outputs": [
        {
          "internalType": "bool",
          "name": "",
          "type": "bool"
        }
      ],
      "stateMutability": "view",
      "type": "function"
    },
    {
      "inputs": [],
      "name": "symbol",
      "outputs": [
        {
          "internalType": "string",
          "name": "",
          "type": "string"
        }
      ],
      "stateMutability": "view",
      "type": "function"
    },
    {
      "inputs": [
        {
          "internalType": "uint256",
          "name": "tokenId",
          "type": "uint256"
        }
      ],
      "name": "tokenURI",
      "outputs": [
        {
          "internalType": "string",
          "name": "",
          "type": "string"
        }
      ],
      "stateMutability": "view",
      "type": "function"
    },
    {
      "inputs": [
        {
          "internalType": "address",
          "name": "from",
          "type": "address"
        },
        {
          "internalType": "address",
          "name": "to",
          "type": "address"
        },
        {
          "internalType": "uint256",
          "name": "tokenId",
          "type": "uint256"
        }
      ],
      "name": "transferFrom",
      "outputs": [],
      "stateMutability": "nonpayable",
      "type": "function"
    },
    {
      "inputs": [
        {
          "internalType": "address",
          "name": "newOwner",
          "type": "address"
        }
      ],
      "name": "transferOwnership",
      "outputs": [],
      "stateMutability": "nonpayable",
      "type": "function"
    }
  ],
  "bytecode": "0x608060405260405180608001604052806059815260200162002bc360599139600790805190602001906200003592919062000226565b506040518060400160405280600581526020017f2e6a736f6e000000000000000000000000000000000000000000000000000000815250600890805190602001906200008392919062000226565b503480156200009157600080fd5b506040518060400160405280600581526020017f68617272790000000000000000000000000000000000000000000000000000008152506040518060400160405280600481526020017f7a686f750000000000000000000000000000000000000000000000000000000081525081600090805190602001906200011692919062000226565b5080600190805190602001906200012f92919062000226565b50505062000152620001466200015860201b60201c565b6200016060201b60201c565b6200033b565b600033905090565b6000600660009054906101000a900473ffffffffffffffffffffffffffffffffffffffff16905081600660006101000a81548173ffffffffffffffffffffffffffffffffffffffff021916908373ffffffffffffffffffffffffffffffffffffffff1602179055508173ffffffffffffffffffffffffffffffffffffffff168173ffffffffffffffffffffffffffffffffffffffff167f8be0079c531659141344cd1fd0a4f28419497f9722a3daafe3b4186f6b6457e060405160405180910390a35050565b828054620002349062000305565b90600052602060002090601f016020900481019282620002585760008555620002a4565b82601f106200027357805160ff1916838001178555620002a4565b82800160010185558215620002a4579182015b82811115620002a357825182559160200191906001019062000286565b5b509050620002b39190620002b7565b5090565b5b80821115620002d2576000816000905550600101620002b8565b5090565b7f4e487b7100000000000000000000000000000000000000000000000000000000600052602260045260246000fd5b600060028204905060018216806200031e57607f821691505b60208210811415620003355762000334620002d6565b5b50919050565b612878806200034b6000396000f3fe608060405234801561001057600080fd5b506004361061012c5760003560e01c8063715018a6116100ad578063b8997a9711610071578063b8997a971461031d578063c66828621461033b578063c87b56dd14610359578063e985e9c514610389578063f2fde38b146103b95761012c565b8063715018a61461029f5780638da5cb5b146102a957806395d89b41146102c7578063a22cb465146102e5578063b88d4fde146103015761012c565b806342842e0e116100f457806342842e0e146101e757806343bc1612146102035780636352211e146102215780636c0360eb1461025157806370a082311461026f5761012c565b806301ffc9a71461013157806306fdde0314610161578063081812fc1461017f578063095ea7b3146101af57806323b872dd146101cb575b600080fd5b61014b60048036038101906101469190611a8b565b6103d5565b6040516101589190611ad3565b60405180910390f35b6101696104b7565b6040516101769190611b87565b60405180910390f35b61019960048036038101906101949190611bdf565b610549565b6040516101a69190611c4d565b60405180910390f35b6101c960048036038101906101c49190611c94565b61058f565b005b6101e560048036038101906101e09190611cd4565b6106a7565b005b61020160048036038101906101fc9190611cd4565b610707565b005b61020b610727565b6040516102189190611c4d565b60405180910390f35b61023b60048036038101906102369190611bdf565b61074d565b6040516102489190611c4d565b60405180910390f35b6102596107d4565b6040516102669190611b87565b60405180910390f35b61028960048036038101906102849190611d27565b610862565b6040516102969190611d63565b60405180910390f35b6102a761091a565b005b6102b161092e565b6040516102be9190611c4d565b60405180910390f35b6102cf610958565b6040516102dc9190611b87565b60405180910390f35b6102ff60048036038101906102fa9190611daa565b6109ea565b005b61031b60048036038101906103169190611f1f565b610a00565b005b610325610a62565b6040516103329190611d63565b60405180910390f35b610343610a68565b6040516103509190611b87565b60405180910390f35b610373600480360381019061036e9190611bdf565b610af6565b6040516103809190611b87565b60405180910390f35b6103a3600480360381019061039e9190611fa2565b610b5e565b6040516103b09190611ad3565b60405180910390f35b6103d360048036038101906103ce9190611d27565b610bf2565b005b60007f80ac58cd000000000000000000000000000000000000000000000000000000007bffffffffffffffffffffffffffffffffffffffffffffffffffffffff1916827bffffffffffffffffffffffffffffffffffffffffffffffffffffffff191614806104a057507f5b5e139f000000000000000000000000000000000000000000000000000000007bffffffffffffffffffffffffffffffffffffffffffffffffffffffff1916827bffffffffffffffffffffffffffffffffffffffffffffffffffffffff1916145b806104b057506104af82610c76565b5b9050919050565b6060600080546104c690612011565b80601f01602080910402602001604051908101604052809291908181526020018280546104f290612011565b801561053f5780601f106105145761010080835404028352916020019161053f565b820191906000526020600020905b81548152906001019060200180831161052257829003601f168201915b5050505050905090565b600061055482610ce0565b6004600083815260200190815260200160002060009054906101000a900473ffffffffffffffffffffffffffffffffffffffff169050919050565b600061059a8261074d565b90508073ffffffffffffffffffffffffffffffffffffffff168373ffffffffffffffffffffffffffffffffffffffff16141561060b576040517f08c379a0000000000000000000000000000000000000000000000000000000008152600401610602906120b5565b60405180910390fd5b8073ffffffffffffffffffffffffffffffffffffffff1661062a610d2b565b73ffffffffffffffffffffffffffffffffffffffff161480610659575061065881610653610d2b565b610b5e565b5b610698576040517f08c379a000000000000000000000000000000000000000000000000000000000815260040161068f90612147565b60405180910390fd5b6106a28383610d33565b505050565b6106b86106b2610d2b565b82610dec565b6106f7576040517f08c379a00000000000000000000000000000000000000000000000000000000081526004016106ee906121d9565b60405180910390fd5b610702838383610e81565b505050565b61072283838360405180602001604052806000815250610a00565b505050565b600960009054906101000a900473ffffffffffffffffffffffffffffffffffffffff1681565b6000806107598361117b565b9050600073ffffffffffffffffffffffffffffffffffffffff168173ffffffffffffffffffffffffffffffffffffffff1614156107cb576040517f08c379a00000000000000000000000000000000000000000000000000000000081526004016107c290612245565b60405180910390fd5b80915050919050565b600780546107e190612011565b80601f016020809104026020016040519081016040528092919081815260200182805461080d90612011565b801561085a5780601f1061082f5761010080835404028352916020019161085a565b820191906000526020600020905b81548152906001019060200180831161083d57829003601f168201915b505050505081565b60008073ffffffffffffffffffffffffffffffffffffffff168273ffffffffffffffffffffffffffffffffffffffff1614156108d3576040517f08c379a00000000000000000000000000000000000000000000000000000000081526004016108ca906122d7565b60405180910390fd5b600360008373ffffffffffffffffffffffffffffffffffffffff1673ffffffffffffffffffffffffffffffffffffffff168152602001908152602001600020549050919050565b6109226111b8565b61092c6000611236565b565b6000600660009054906101000a900473ffffffffffffffffffffffffffffffffffffffff16905090565b60606001805461096790612011565b80601f016020809104026020016040519081016040528092919081815260200182805461099390612011565b80156109e05780601f106109b5576101008083540402835291602001916109e0565b820191906000526020600020905b8154815290600101906020018083116109c357829003601f168201915b5050505050905090565b6109fc6109f5610d2b565b83836112fc565b5050565b610a11610a0b610d2b565b83610dec565b610a50576040517f08c379a0000000000000000000000000000000000000000000000000000000008152600401610a47906121d9565b60405180910390fd5b610a5c84848484611469565b50505050565b600a5481565b60088054610a7590612011565b80601f0160208091040260200160405190810160405280929190818152602001828054610aa190612011565b8015610aee5780601f10610ac357610100808354040283529160200191610aee565b820191906000526020600020905b815481529060010190602001808311610ad157829003601f168201915b505050505081565b6060610b0182610ce0565b6000610b0b6114c5565b90506000815111610b2b5760405180602001604052806000815250610b56565b80610b35846114dc565b604051602001610b46929190612333565b6040516020818303038152906040525b915050919050565b6000600560008473ffffffffffffffffffffffffffffffffffffffff1673ffffffffffffffffffffffffffffffffffffffff16815260200190815260200160002060008373ffffffffffffffffffffffffffffffffffffffff1673ffffffffffffffffffffffffffffffffffffffff16815260200190815260200160002060009054906101000a900460ff16905092915050565b610bfa6111b8565b600073ffffffffffffffffffffffffffffffffffffffff168173ffffffffffffffffffffffffffffffffffffffff161415610c6a576040517f08c379a0000000000000000000000000000000000000000000000000000000008152600401610c61906123c9565b60405180910390fd5b610c7381611236565b50565b60007f01ffc9a7000000000000000000000000000000000000000000000000000000007bffffffffffffffffffffffffffffffffffffffffffffffffffffffff1916827bffffffffffffffffffffffffffffffffffffffffffffffffffffffff1916149050919050565b610ce9816115b4565b610d28576040517f08c379a0000000000000000000000000000000000000000000000000000000008152600401610d1f90612245565b60405180910390fd5b50565b600033905090565b816004600083815260200190815260200160002060006101000a81548173ffffffffffffffffffffffffffffffffffffffff021916908373ffffffffffffffffffffffffffffffffffffffff160217905550808273ffffffffffffffffffffffffffffffffffffffff16610da68361074d565b73ffffffffffffffffffffffffffffffffffffffff167f8c5be1e5ebec7d5bd14f71427d1e84f3dd0314c0f7b2291e5b200ac8c7c3b92560405160405180910390a45050565b600080610df88361074d565b90508073ffffffffffffffffffffffffffffffffffffffff168473ffffffffffffffffffffffffffffffffffffffff161480610e3a5750610e398185610b5e565b5b80610e7857508373ffffffffffffffffffffffffffffffffffffffff16610e6084610549565b73ffffffffffffffffffffffffffffffffffffffff16145b91505092915050565b8273ffffffffffffffffffffffffffffffffffffffff16610ea18261074d565b73ffffffffffffffffffffffffffffffffffffffff1614610ef7576040517f08c379a0000000000000000000000000000000000000000000000000000000008152600401610eee9061245b565b60405180910390fd5b600073ffffffffffffffffffffffffffffffffffffffff168273ffffffffffffffffffffffffffffffffffffffff161415610f67576040517f08c379a0000000000000000000000000000000000000000000000000000000008152600401610f5e906124ed565b60405180910390fd5b610f7483838360016115f5565b8273ffffffffffffffffffffffffffffffffffffffff16610f948261074d565b73ffffffffffffffffffffffffffffffffffffffff1614610fea576040517f08c379a0000000000000000000000000000000000000000000000000000000008152600401610fe19061245b565b60405180910390fd5b6004600082815260200190815260200160002060006101000a81549073ffffffffffffffffffffffffffffffffffffffff02191690556001600360008573ffffffffffffffffffffffffffffffffffffffff1673ffffffffffffffffffffffffffffffffffffffff168152602001908152602001600020600082825403925050819055506001600360008473ffffffffffffffffffffffffffffffffffffffff1673ffffffffffffffffffffffffffffffffffffffff16815260200190815260200160002060008282540192505081905550816002600083815260200190815260200160002060006101000a81548173ffffffffffffffffffffffffffffffffffffffff021916908373ffffffffffffffffffffffffffffffffffffffff160217905550808273ffffffffffffffffffffffffffffffffffffffff168473ffffffffffffffffffffffffffffffffffffffff167fddf252ad1be2c89b69c2b068fc378daa952ba7f163c4a11628f55a4df523b3ef60405160405180910390a4611176838383600161171b565b505050565b60006002600083815260200190815260200160002060009054906101000a900473ffffffffffffffffffffffffffffffffffffffff169050919050565b6111c0610d2b565b73ffffffffffffffffffffffffffffffffffffffff166111de61092e565b73ffffffffffffffffffffffffffffffffffffffff1614611234576040517f08c379a000000000000000000000000000000000000000000000000000000000815260040161122b90612559565b60405180910390fd5b565b6000600660009054906101000a900473ffffffffffffffffffffffffffffffffffffffff16905081600660006101000a81548173ffffffffffffffffffffffffffffffffffffffff021916908373ffffffffffffffffffffffffffffffffffffffff1602179055508173ffffffffffffffffffffffffffffffffffffffff168173ffffffffffffffffffffffffffffffffffffffff167f8be0079c531659141344cd1fd0a4f28419497f9722a3daafe3b4186f6b6457e060405160405180910390a35050565b8173ffffffffffffffffffffffffffffffffffffffff168373ffffffffffffffffffffffffffffffffffffffff16141561136b576040517f08c379a0000000000000000000000000000000000000000000000000000000008152600401611362906125c5565b60405180910390fd5b80600560008573ffffffffffffffffffffffffffffffffffffffff1673ffffffffffffffffffffffffffffffffffffffff16815260200190815260200160002060008473ffffffffffffffffffffffffffffffffffffffff1673ffffffffffffffffffffffffffffffffffffffff16815260200190815260200160002060006101000a81548160ff0219169083151502179055508173ffffffffffffffffffffffffffffffffffffffff168373ffffffffffffffffffffffffffffffffffffffff167f17307eab39ab6107e8899845ad3d59bd9653f200f220920489ca2b5937696c318360405161145c9190611ad3565b60405180910390a3505050565b611474848484610e81565b61148084848484611721565b6114bf576040517f08c379a00000000000000000000000000000000000000000000000000000000081526004016114b690612657565b60405180910390fd5b50505050565b606060405180602001604052806000815250905090565b6060600060016114eb846118a9565b01905060008167ffffffffffffffff81111561150a57611509611df4565b5b6040519080825280601f01601f19166020018201604052801561153c5781602001600182028036833780820191505090505b509050600082602001820190505b6001156115a9578080600190039150507f3031323334353637383961626364656600000000000000000000000000000000600a86061a8153600a858161159357611592612677565b5b04945060008514156115a4576115a9565b61154a565b819350505050919050565b60008073ffffffffffffffffffffffffffffffffffffffff166115d68361117b565b73ffffffffffffffffffffffffffffffffffffffff1614159050919050565b600181111561171557600073ffffffffffffffffffffffffffffffffffffffff168473ffffffffffffffffffffffffffffffffffffffff16146116895780600360008673ffffffffffffffffffffffffffffffffffffffff1673ffffffffffffffffffffffffffffffffffffffff168152602001908152602001600020600082825461168191906126d5565b925050819055505b600073ffffffffffffffffffffffffffffffffffffffff168373ffffffffffffffffffffffffffffffffffffffff16146117145780600360008573ffffffffffffffffffffffffffffffffffffffff1673ffffffffffffffffffffffffffffffffffffffff168152602001908152602001600020600082825461170c9190612709565b925050819055505b5b50505050565b50505050565b60006117428473ffffffffffffffffffffffffffffffffffffffff166119fc565b1561189c578373ffffffffffffffffffffffffffffffffffffffff1663150b7a0261176b610d2b565b8786866040518563ffffffff1660e01b815260040161178d94939291906127b4565b6020604051808303816000875af19250505080156117c957506040513d601f19601f820116820180604052508101906117c69190612815565b60015b61184c573d80600081146117f9576040519150601f19603f3d011682016040523d82523d6000602084013e6117fe565b606091505b50600081511415611844576040517f08c379a000000000000000000000000000000000000000000000000000000000815260040161183b90612657565b60405180910390fd5b805181602001fd5b63150b7a0260e01b7bffffffffffffffffffffffffffffffffffffffffffffffffffffffff1916817bffffffffffffffffffffffffffffffffffffffffffffffffffffffff1916149150506118a1565b600190505b949350505050565b600080600090507a184f03e93ff9f4daa797ed6e38ed64bf6a1f0100000000000000008310611907577a184f03e93ff9f4daa797ed6e38ed64bf6a1f01000000000000000083816118fd576118fc612677565b5b0492506040810190505b6d04ee2d6d415b85acef81000000008310611944576d04ee2d6d415b85acef8100000000838161193a57611939612677565b5b0492506020810190505b662386f26fc10000831061197357662386f26fc10000838161196957611968612677565b5b0492506010810190505b6305f5e100831061199c576305f5e100838161199257611991612677565b5b0492506008810190505b61271083106119c15761271083816119b7576119b6612677565b5b0492506004810190505b606483106119e457606483816119da576119d9612677565b5b0492506002810190505b600a83106119f3576001810190505b80915050919050565b6000808273ffffffffffffffffffffffffffffffffffffffff163b119050919050565b6000604051905090565b600080fd5b600080fd5b60007fffffffff0000000000000000000000000000000000000000000000000000000082169050919050565b611a6881611a33565b8114611a7357600080fd5b50565b600081359050611a8581611a5f565b92915050565b600060208284031215611aa157611aa0611a29565b5b6000611aaf84828501611a76565b91505092915050565b60008115159050919050565b611acd81611ab8565b82525050565b6000602082019050611ae86000830184611ac4565b92915050565b600081519050919050565b600082825260208201905092915050565b60005b83811015611b28578082015181840152602081019050611b0d565b83811115611b37576000848401525b50505050565b6000601f19601f8301169050919050565b6000611b5982611aee565b611b638185611af9565b9350611b73818560208601611b0a565b611b7c81611b3d565b840191505092915050565b60006020820190508181036000830152611ba18184611b4e565b905092915050565b6000819050919050565b611bbc81611ba9565b8114611bc757600080fd5b50565b600081359050611bd981611bb3565b92915050565b600060208284031215611bf557611bf4611a29565b5b6000611c0384828501611bca565b91505092915050565b600073ffffffffffffffffffffffffffffffffffffffff82169050919050565b6000611c3782611c0c565b9050919050565b611c4781611c2c565b82525050565b6000602082019050611c626000830184611c3e565b92915050565b611c7181611c2c565b8114611c7c57600080fd5b50565b600081359050611c8e81611c68565b92915050565b60008060408385031215611cab57611caa611a29565b5b6000611cb985828601611c7f565b9250506020611cca85828601611bca565b9150509250929050565b600080600060608486031215611ced57611cec611a29565b5b6000611cfb86828701611c7f565b9350506020611d0c86828701611c7f565b9250506040611d1d86828701611bca565b9150509250925092565b600060208284031215611d3d57611d3c611a29565b5b6000611d4b84828501611c7f565b91505092915050565b611d5d81611ba9565b82525050565b6000602082019050611d786000830184611d54565b92915050565b611d8781611ab8565b8114611d9257600080fd5b50565b600081359050611da481611d7e565b92915050565b60008060408385031215611dc157611dc0611a29565b5b6000611dcf85828601611c7f565b9250506020611de085828601611d95565b9150509250929050565b600080fd5b600080fd5b7f4e487b7100000000000000000000000000000000000000000000000000000000600052604160045260246000fd5b611e2c82611b3d565b810181811067ffffffffffffffff82111715611e4b57611e4a611df4565b5b80604052505050565b6000611e5e611a1f565b9050611e6a8282611e23565b919050565b600067ffffffffffffffff821115611e8a57611e89611df4565b5b611e9382611b3d565b9050602081019050919050565b82818337600083830152505050565b6000611ec2611ebd84611e6f565b611e54565b905082815260208101848484011115611ede57611edd611def565b5b611ee9848285611ea0565b509392505050565b600082601f830112611f0657611f05611dea565b5b8135611f16848260208601611eaf565b91505092915050565b60008060008060808587031215611f3957611f38611a29565b5b6000611f4787828801611c7f565b9450506020611f5887828801611c7f565b9350506040611f6987828801611bca565b925050606085013567ffffffffffffffff811115611f8a57611f89611a2e565b5b611f9687828801611ef1565b91505092959194509250565b60008060408385031215611fb957611fb8611a29565b5b6000611fc785828601611c7f565b9250506020611fd885828601611c7f565b9150509250929050565b7f4e487b7100000000000000000000000000000000000000000000000000000000600052602260045260246000fd5b6000600282049050600182168061202957607f821691505b6020821081141561203d5761203c611fe2565b5b50919050565b7f4552433732313a20617070726f76616c20746f2063757272656e74206f776e6560008201527f7200000000000000000000000000000000000000000000000000000000000000602082015250565b600061209f602183611af9565b91506120aa82612043565b604082019050919050565b600060208201905081810360008301526120ce81612092565b9050919050565b7f4552433732313a20617070726f76652063616c6c6572206973206e6f7420746f60008201527f6b656e206f776e6572206f7220617070726f76656420666f7220616c6c000000602082015250565b6000612131603d83611af9565b915061213c826120d5565b604082019050919050565b6000602082019050818103600083015261216081612124565b9050919050565b7f4552433732313a2063616c6c6572206973206e6f7420746f6b656e206f776e6560008201527f72206f7220617070726f76656400000000000000000000000000000000000000602082015250565b60006121c3602d83611af9565b91506121ce82612167565b604082019050919050565b600060208201905081810360008301526121f2816121b6565b9050919050565b7f4552433732313a20696e76616c696420746f6b656e2049440000000000000000600082015250565b600061222f601883611af9565b915061223a826121f9565b602082019050919050565b6000602082019050818103600083015261225e81612222565b9050919050565b7f4552433732313a2061646472657373207a65726f206973206e6f74206120766160008201527f6c6964206f776e65720000000000000000000000000000000000000000000000602082015250565b60006122c1602983611af9565b91506122cc82612265565b604082019050919050565b600060208201905081810360008301526122f0816122b4565b9050919050565b600081905092915050565b600061230d82611aee565b61231781856122f7565b9350612327818560208601611b0a565b80840191505092915050565b600061233f8285612302565b915061234b8284612302565b91508190509392505050565b7f4f776e61626c653a206e6577206f776e657220697320746865207a65726f206160008201527f6464726573730000000000000000000000000000000000000000000000000000602082015250565b60006123b3602683611af9565b91506123be82612357565b604082019050919050565b600060208201905081810360008301526123e2816123a6565b9050919050565b7f4552433732313a207472616e736665722066726f6d20696e636f72726563742060008201527f6f776e6572000000000000000000000000000000000000000000000000000000602082015250565b6000612445602583611af9565b9150612450826123e9565b604082019050919050565b6000602082019050818103600083015261247481612438565b9050919050565b7f4552433732313a207472616e7366657220746f20746865207a65726f2061646460008201527f7265737300000000000000000000000000000000000000000000000000000000602082015250565b60006124d7602483611af9565b91506124e28261247b565b604082019050919050565b60006020820190508181036000830152612506816124ca565b9050919050565b7f4f776e61626c653a2063616c6c6572206973206e6f7420746865206f776e6572600082015250565b6000612543602083611af9565b915061254e8261250d565b602082019050919050565b6000602082019050818103600083015261257281612536565b9050919050565b7f4552433732313a20617070726f766520746f2063616c6c657200000000000000600082015250565b60006125af601983611af9565b91506125ba82612579565b602082019050919050565b600060208201905081810360008301526125de816125a2565b9050919050565b7f4552433732313a207472616e7366657220746f206e6f6e20455243373231526560008201527f63656976657220696d706c656d656e7465720000000000000000000000000000602082015250565b6000612641603283611af9565b915061264c826125e5565b604082019050919050565b6000602082019050818103600083015261267081612634565b9050919050565b7f4e487b7100000000000000000000000000000000000000000000000000000000600052601260045260246000fd5b7f4e487b7100000000000000000000000000000000000000000000000000000000600052601160045260246000fd5b60006126e082611ba9565b91506126eb83611ba9565b9250828210156126fe576126fd6126a6565b5b828203905092915050565b600061271482611ba9565b915061271f83611ba9565b9250827fffffffffffffffffffffffffffffffffffffffffffffffffffffffffffffffff03821115612754576127536126a6565b5b828201905092915050565b600081519050919050565b600082825260208201905092915050565b60006127868261275f565b612790818561276a565b93506127a0818560208601611b0a565b6127a981611b3d565b840191505092915050565b60006080820190506127c96000830187611c3e565b6127d66020830186611c3e565b6127e36040830185611d54565b81810360608301526127f5818461277b565b905095945050505050565b60008151905061280f81611a5f565b92915050565b60006020828403121561282b5761282a611a29565b5b600061283984828501612800565b9150509291505056fea264697066735822122036f8be29036cd4bfcce7a283b17914134b868e8c5e9ddbdd7067818285f82e6364736f6c634300080b003368747470733a2f2f6261667962656964686a6a626a6f6e7971636168757a6c707437737a6e6d683478726c62737061336773746f70356f34376c3667736961666665652e697066732e6e667473746f726167652e6c696e6b2f",
  "immutableReferences": {},
  "source": "// SPDX-License-Identifier: MIT\npragma solidity ^0.8.0;\n\nimport \"@openzeppelin/contracts/access/Ownable.sol\";\nimport \"@openzeppelin/contracts/token/ERC721/ERC721.sol\";\n\ncontract MusicNFTMarketplace is ERC721(\"harry\", \"zhou\"), Ownable {\n    string public baseURI =\n        \"https://bafybeidhjjbjonyqcahuzlpt7sznmh4xrlbspa3gstop5o47l6gsiaffee.ipfs.nftstorage.link/\";\n    string public baseExtension = \".json\";\n    address public artist;\n    uint256 public royaltyFee;\n}\n",
  "sourcePath": "/Users/zexuanzhou/Desktop/PersonalProjects-HarryZ/contracts/MusicNFTMarketplace.sol",
  "compiler": {
    "name": "solc",
    "version": "0.8.11+commit.d7f03943.Emscripten.clang"
  },
  "schemaVersion": "3.4.10",
  "updatedAt": "2022-12-24T20:42:33.337Z",
  "devdoc": {
    "kind": "dev",
    "methods": {
      "approve(address,uint256)": {
        "details": "See {IERC721-approve}."
      },
      "balanceOf(address)": {
        "details": "See {IERC721-balanceOf}."
      },
      "getApproved(uint256)": {
        "details": "See {IERC721-getApproved}."
      },
      "isApprovedForAll(address,address)": {
        "details": "See {IERC721-isApprovedForAll}."
      },
      "name()": {
        "details": "See {IERC721Metadata-name}."
      },
      "owner()": {
        "details": "Returns the address of the current owner."
      },
      "ownerOf(uint256)": {
        "details": "See {IERC721-ownerOf}."
      },
      "renounceOwnership()": {
        "details": "Leaves the contract without owner. It will not be possible to call `onlyOwner` functions anymore. Can only be called by the current owner. NOTE: Renouncing ownership will leave the contract without an owner, thereby removing any functionality that is only available to the owner."
      },
      "safeTransferFrom(address,address,uint256)": {
        "details": "See {IERC721-safeTransferFrom}."
      },
      "safeTransferFrom(address,address,uint256,bytes)": {
        "details": "See {IERC721-safeTransferFrom}."
      },
      "setApprovalForAll(address,bool)": {
        "details": "See {IERC721-setApprovalForAll}."
      },
      "supportsInterface(bytes4)": {
        "details": "See {IERC165-supportsInterface}."
      },
      "symbol()": {
        "details": "See {IERC721Metadata-symbol}."
      },
      "tokenURI(uint256)": {
        "details": "See {IERC721Metadata-tokenURI}."
      },
      "transferFrom(address,address,uint256)": {
        "details": "See {IERC721-transferFrom}."
      },
      "transferOwnership(address)": {
        "details": "Transfers ownership of the contract to a new account (`newOwner`). Can only be called by the current owner."
      }
    },
    "version": 1
  },
  "userdoc": {
    "kind": "user",
    "methods": {},
    "version": 1
  }
}